{
  "contractName": "Will",
  "abi": [
    {
      "inputs": [
        {
          "name": "passy1",
          "type": "bytes32"
        },
        {
          "name": "passy2",
          "type": "bytes32"
        },
        {
          "name": "_deadline",
          "type": "uint256"
        }
      ],
      "payable": true,
      "stateMutability": "payable",
      "type": "constructor"
    },
    {
      "constant": false,
      "inputs": [],
      "name": "gethethers",
      "outputs": [],
      "payable": true,
      "stateMutability": "payable",
      "type": "function"
    },
    {
      "constant": false,
      "inputs": [
        {
          "name": "PlainPass1",
          "type": "string"
        },
        {
          "name": "PlainPass2",
          "type": "string"
        }
      ],
      "name": "Withdraw",
      "outputs": [],
      "payable": false,
      "stateMutability": "nonpayable",
      "type": "function"
    },
    {
      "constant": false,
      "inputs": [
        {
          "name": "PlainPass2",
          "type": "string"
        }
      ],
      "name": "Cancel",
      "outputs": [],
      "payable": false,
      "stateMutability": "nonpayable",
      "type": "function"
    }
  ],
  "bytecode": "0x60806040526040516060806104e2833981018060405281019080805190602001909291908051906020019092919080519060200190929190505050806000819055508260018160001916905550816002816000191690555033600360006101000a81548173ffffffffffffffffffffffffffffffffffffffff021916908373ffffffffffffffffffffffffffffffffffffffff160217905550505050610438806100aa6000396000f300608060405260043610610057576000357c0100000000000000000000000000000000000000000000000000000000900463ffffffff16806351a896601461005c5780635c16de21146100665780638611643a146100cf575b600080fd5b61006461017e565b005b34801561007257600080fd5b506100cd600480360381019080803590602001908201803590602001908080601f01602080910402602001604051908101604052809392919081815260200183838082843782019150505050505091929192905050506101dc565b005b3480156100db57600080fd5b5061017c600480360381019080803590602001908201803590602001908080601f0160208091040260200160405190810160405280939291908181526020018383808284378201915050505050509192919290803590602001908201803590602001908080601f01602080910402602001604051908101604052809392919081815260200183838082843782019150505050505091929192905050506102b8565b005b600360009054906101000a900473ffffffffffffffffffffffffffffffffffffffff1673ffffffffffffffffffffffffffffffffffffffff163373ffffffffffffffffffffffffffffffffffffffff161415156101da57600080fd5b565b60025460001916816040518082805190602001908083835b60208310151561021957805182526020820191506020810190506020830392506101f4565b6001836020036101000a038019825116818451168082178552505050505050905001915050604051809103902060001916148015610258575042600054115b156102b5573373ffffffffffffffffffffffffffffffffffffffff166108fc3073ffffffffffffffffffffffffffffffffffffffff16319081150290604051600060405180830381858888f1935050505015156102b457600080fd5b5b50565b60015460001916826040518082805190602001908083835b6020831015156102f557805182526020820191506020810190506020830392506102d0565b6001836020036101000a03801982511681845116808217855250505050505090500191505060405180910390206000191614801561039e575060025460001916816040518082805190602001908083835b60208310151561036b5780518252602082019150602081019050602083039250610346565b6001836020036101000a038019825116818451168082178552505050505050905001915050604051809103902060001916145b80156103ab575042600054115b15610408573373ffffffffffffffffffffffffffffffffffffffff166108fc3073ffffffffffffffffffffffffffffffffffffffff16319081150290604051600060405180830381858888f19350505050151561040757600080fd5b5b50505600a165627a7a72305820f0763446fdff53cde59a9d7c290407f365a6586704cf5c5ecaf52922c4715f360029",
  "source": "pragma solidity ^0.4.21;\n\ncontract Will {\n\t//The wallet address of Mark, the Father\n\t//address father;\n\t//Address for son\n//\taddress child;\n\t//Address for charity\n//\taddress NGO;\n\t//Days until expected graduation time\n\tuint deadline;\n\t//Amount of money to be deducted from father's account\n//\tuint toBeSent;\n\t//First half of password, hashed in keccak256, possessed by son\n\tbytes32 pass1;\n\t//Second half of password, hashed in keccak256, possessed by father\n\tbytes32 pass2;\n\taddress owner;\n\n\t//Constructor function that initializes passwords, deadline, and addresses for NGO and child\n\tfunction Will(bytes32 passy1, bytes32 passy2, uint _deadline) payable {\n\t\tdeadline = _deadline;\n\t\tpass1 = passy1;\n\t\tpass2 = passy2;\n\t\towner = msg.sender;\n\t}\n\n\t//Checks if the deadline has passed\n//\tfunction isPastDeadline() internal returns (bool) {\n//\t\treturn now >= deadline * 1 days;\n//\t}\n\tfunction gethethers() payable{\n\t    require(msg.sender==owner);\n\t}\n\n\t//Allows the son to withdraw his portion of the money from the account\n\tfunction Withdraw(string PlainPass1, string PlainPass2) {\n\t\t//Hash plain text passwords with keccak256 and check against original pass hashes\n\t\tif(keccak256(PlainPass1) == pass1 && keccak256(PlainPass2) == pass2 && deadline>now){\n\t\t\tif(!msg.sender.send(this.balance)) {\n\t\t\t\tthrow;\n\t\t}\n\t\t//send the money to child\n\t//\tchild.transfer(toBeSent);\n\t\t}\n\t}\n\t\n\t//If son does not graduate, attorney can send money to charity\n\tfunction Cancel (string PlainPass2) {\n\t\tif(keccak256(PlainPass2) == pass2 && deadline>now){\n\t\t\tif(!msg.sender.send(this.balance)) {\n\t\t\t\tthrow;\n\t\t\t}\n\t\t}\n\t}\n\n}\n\t\t\t\n",
  "sourcePath": "/Users/vrodomista/Workspace/school/crypto_class/willFinal/contracts/Will.sol",
  "compiler": {
    "name": "solc",
    "version": "0.4.23+commit.124ca40d.Emscripten.clang"
  },
  "schemaVersion": "2.0.0",
  "updatedAt": "2018-04-27T02:05:30.493Z"
}