{
  "contractName": "Will",
  "abi": [
    {
      "inputs": [
        {
          "name": "password1",
          "type": "bytes32"
        },
        {
          "name": "password2",
          "type": "bytes32"
        },
        {
          "name": "_deadline",
          "type": "uint256"
        }
      ],
      "payable": false,
      "stateMutability": "nonpayable",
      "type": "constructor"
    },
    {
      "constant": false,
      "inputs": [
        {
          "name": "PlainPass1",
          "type": "string"
        },
        {
          "name": "PlainPass2",
          "type": "string"
        }
      ],
      "name": "Withdraw",
      "outputs": [
        {
          "name": "",
          "type": "bool"
        }
      ],
      "payable": false,
      "stateMutability": "nonpayable",
      "type": "function"
    },
    {
      "constant": false,
      "inputs": [
        {
          "name": "PlainPass2",
          "type": "string"
        }
      ],
      "name": "Cancel",
      "outputs": [
        {
          "name": "",
          "type": "bool"
        }
      ],
      "payable": false,
      "stateMutability": "nonpayable",
      "type": "function"
    }
  ],
  "bytecode": "0x608060405230600360006101000a81548173ffffffffffffffffffffffffffffffffffffffff021916908373ffffffffffffffffffffffffffffffffffffffff16021790555034801561005157600080fd5b50604051606080610535833981018060405281019080805190602001909291908051906020019092919080519060200190929190505050806000819055508260018160001916905550816002816000191690555050505061047e806100b76000396000f30060806040526004361061004c576000357c0100000000000000000000000000000000000000000000000000000000900463ffffffff1680635c16de21146100515780638611643a146100d2575b600080fd5b34801561005d57600080fd5b506100b8600480360381019080803590602001908201803590602001908080601f0160208091040260200160405190810160405280939291908181526020018383808284378201915050505050509192919290505050610199565b604051808215151515815260200191505060405180910390f35b3480156100de57600080fd5b5061017f600480360381019080803590602001908201803590602001908080601f0160208091040260200160405190810160405280939291908181526020018383808284378201915050505050509192919290803590602001908201803590602001908080601f01602080910402602001604051908101604052809392919081815260200183838082843782019150505050505091929192905050506102a8565b604051808215151515815260200191505060405180910390f35b600060025460001916826040518082805190602001908083835b6020831015156101d857805182526020820191506020810190506020830392506101b3565b6001836020036101000a038019825116818451168082178552505050505050905001915050604051809103902060001916148015610217575042600054115b156102a2573373ffffffffffffffffffffffffffffffffffffffff166108fc600360009054906101000a900473ffffffffffffffffffffffffffffffffffffffff1673ffffffffffffffffffffffffffffffffffffffff16319081150290604051600060405180830381858888f19350505050151561029957600090506102a3565b600190506102a3565b5b919050565b6000600154604051808260001916600019168152602001915050604051809103902060001916836040518082805190602001908083835b60208310151561030457805182526020820191506020810190506020830392506102df565b6001836020036101000a0380198251168184511680821785525050505050509050019150506040518091039020600019161480156103ca5750600254604051808260001916600019168152602001915050604051809103902060001916826040518082805190602001908083835b6020831015156103975780518252602082019150602081019050602083039250610372565b6001836020036101000a038019825116818451168082178552505050505050905001915050604051809103902060001916145b15610447573373ffffffffffffffffffffffffffffffffffffffff166108fc600360009054906101000a900473ffffffffffffffffffffffffffffffffffffffff1673ffffffffffffffffffffffffffffffffffffffff16319081150290604051600060405180830381858888f19350505050506001905061044c565b600090505b929150505600a165627a7a7230582020c0883a990c7f1b07b28a73dfdc62fd47dea7d60829507236f2fc182124180f0029",
  "source": "pragma solidity ^0.4.21;\n\ncontract Will {\t\n\t//Days until expected graduation time\n\tuint deadline;\n\t//First half of password, hashed in keccak256, possessed by son\n\tbytes32 pass1;\n\t//Second half of password, hashed in keccak256, possessed by father\n\tbytes32 pass2;\n\taddress myAddress = this;\n\n\t//Constructor function that initializes passwords, deadline, and addresses for NGO and child\n\tconstructor (bytes32 password1, bytes32 password2, uint _deadline) public {\n\t\tdeadline = _deadline;\n\t\tpass1 = password1;\n\t\tpass2 = password2;\n\t}\n\n\n\t//Allows the son to withdraw his portion of the money from the account\n\tfunction Withdraw(string PlainPass1, string PlainPass2) public returns(bool){\n\t\t//Hash plain text passwords with keccak256 and check against original pass hashes\n\t\tif(keccak256(PlainPass1) == keccak256(pass1) && keccak256(PlainPass2) == keccak256(pass2)){  //&& deadline>now\n\t\t\tmsg.sender.send(myAddress.balance);\n\t\t\treturn true;\n\t\t}\n\t\telse\n\t\t\treturn false;\n\t}\n\t\n\t//If son does not graduate, attorney can send money to charity\n\tfunction Cancel(string PlainPass2) public returns(bool) {\n\t\tif(keccak256(PlainPass2) == pass2 && deadline>now){\n\t\t\tif(!msg.sender.send(myAddress.balance)) {\n\t\t\t\treturn false;\n\t\t\t}\n\t\t\treturn true;\n\t\t}\n\t}\n\n}\n\t\t\t\n",
  "sourcePath": "/Users/vrodomista/Workspace/school/crypto_class/willFinal/contracts/Will.sol",
  "compiler": {
    "name": "solc",
    "version": "0.4.23+commit.124ca40d.Emscripten.clang"
  },
  "schemaVersion": "2.0.0",
  "updatedAt": "2018-04-28T04:44:57.715Z"
}