{
  "contractName": "Will",
  "abi": [
    {
      "inputs": [
        {
          "name": "passy1",
          "type": "bytes32"
        },
        {
          "name": "passy2",
          "type": "bytes32"
        },
        {
          "name": "_deadline",
          "type": "uint256"
        },
        {
          "name": "_ngo",
          "type": "address"
        },
        {
          "name": "_child",
          "type": "address"
        }
      ],
      "payable": false,
      "stateMutability": "nonpayable",
      "type": "constructor"
    },
    {
      "constant": false,
      "inputs": [
        {
          "name": "PlainPass1",
          "type": "string"
        },
        {
          "name": "PlainPass2",
          "type": "string"
        }
      ],
      "name": "Withdraw",
      "outputs": [],
      "payable": false,
      "stateMutability": "nonpayable",
      "type": "function"
    },
    {
      "constant": false,
      "inputs": [
        {
          "name": "PlainPass2",
          "type": "string"
        }
      ],
      "name": "Cancel",
      "outputs": [],
      "payable": false,
      "stateMutability": "nonpayable",
      "type": "function"
    }
  ],
  "bytecode": "0x6060604052341561000f57600080fd5b60405160a0806105858339810160405280805190602001909190805190602001909190805190602001909190805190602001909190805190602001909190505080600160006101000a81548173ffffffffffffffffffffffffffffffffffffffff021916908373ffffffffffffffffffffffffffffffffffffffff16021790555081600260006101000a81548173ffffffffffffffffffffffffffffffffffffffff021916908373ffffffffffffffffffffffffffffffffffffffff160217905550336000806101000a81548173ffffffffffffffffffffffffffffffffffffffff021916908373ffffffffffffffffffffffffffffffffffffffff160217905550826003819055506000809054906101000a900473ffffffffffffffffffffffffffffffffffffffff1673ffffffffffffffffffffffffffffffffffffffff1631600481905550846005816000191690555083600681600019169055505050505050610404806101816000396000f30060606040526004361061004c576000357c0100000000000000000000000000000000000000000000000000000000900463ffffffff1680635c16de21146100515780638611643a146100ae575b600080fd5b341561005c57600080fd5b6100ac600480803590602001908201803590602001908080601f0160208091040260200160405190810160405280939291908181526020018383808284378201915050505050509190505061014e565b005b34156100b957600080fd5b61014c600480803590602001908201803590602001908080601f0160208091040260200160405190810160405280939291908181526020018383808284378201915050505050509190803590602001908201803590602001908080601f0160208091040260200160405190810160405280939291908181526020018383808284378201915050505050509190505061023a565b005b60065460001916816040518082805190602001908083835b60208310151561018b5780518252602082019150602081019050602083039250610166565b6001836020036101000a0380198251168184511680821785525050505050509050019150506040518091039020600019161480156101cd57506101cc6103c6565b5b1561023757600260009054906101000a900473ffffffffffffffffffffffffffffffffffffffff1673ffffffffffffffffffffffffffffffffffffffff166108fc6004549081150290604051600060405180830381858888f19350505050151561023657600080fd5b5b50565b60055460001916826040518082805190602001908083835b6020831015156102775780518252602082019150602081019050602083039250610252565b6001836020036101000a038019825116818451168082178552505050505050905001915050604051809103902060001916148015610320575060065460001916816040518082805190602001908083835b6020831015156102ed57805182526020820191506020810190506020830392506102c8565b6001836020036101000a038019825116818451168082178552505050505050905001915050604051809103902060001916145b8015610331575061032f6103c6565b155b156103c1573373ffffffffffffffffffffffffffffffffffffffff1631600454111561035c576103c2565b600160009054906101000a900473ffffffffffffffffffffffffffffffffffffffff1673ffffffffffffffffffffffffffffffffffffffff166108fc6004549081150290604051600060405180830381858888f1935050505015156103c057600080fd5b5b5b5050565b600062015180600354024210159050905600a165627a7a7230582064977e3bb3a9c3b56a9821e7ea98906f1598617447db6104ab0c089fdf2da1950029",
  "source": "pragma solidity ^0.4.21;\n\ncontract Will {\n\t//The wallet address of Mark, the Father\n\taddress father;\n\t//Address for son\n\taddress child;\n\t//Address for charity\n\taddress NGO;\n\t//Days until expected graduation time\n\tuint deadline;\n\t//Amount of money to be deducted from father's account\n\tuint toBeSent;\n\t//First half of password, hashed in keccak256, possessed by son\n\tbytes32 pass1;\n\t//Second half of password, hashed in keccak256, possessed by father\n\tbytes32 pass2;\n\n\t//Constructor function that initializes passwords, deadline, and addresses for NGO and child\n\tfunction Will(bytes32 passy1, bytes32 passy2, uint _deadline, address _ngo, address _child) {\n\t\tchild = _child;\n\t\tNGO = _ngo;\n\t\tfather = msg.sender;\n\t\tdeadline = _deadline;\n\t\ttoBeSent = father.balance;\n\t\tpass1 = passy1;\n\t\tpass2 = passy2;\n\t}\n\n\t//Checks if the deadline has passed\n\tfunction isPastDeadline() internal returns (bool) {\n\t\treturn now >= deadline * 1 days;\n\t}\n\n\t//Allows the son to withdraw his portion of the money from the account\n\tfunction Withdraw(string PlainPass1, string PlainPass2) {\n\t\t//Hash plain text passwords with keccak256 and check against original pass hashes\n\t\tif(keccak256(PlainPass1) == pass1 && keccak256(PlainPass2) == pass2 && !isPastDeadline()){\n\t\t\tif(toBeSent > msg.sender.balance) {\n\t\t\t\treturn;\n\t\t}\n\t\t//send the money to child\n\t\tchild.transfer(toBeSent);\n\t\t}\n\t}\n\t\n\t//If son does not graduate, attorney can send money to charity\n\tfunction Cancel (string PlainPass2) {\n\t\tif(keccak256(PlainPass2) == pass2 && isPastDeadline()){\n\t\t\tNGO.transfer(toBeSent);\n\t\t}\n\t}\n\n}\n\t\t\t\n",
  "sourcePath": "/home/vincent/workspace/crypto/willContract/contracts/Will.sol",
  "compiler": {
    "name": "solc",
    "version": "0.4.21+commit.dfe3193c.Emscripten.clang"
  },
  "schemaVersion": "2.0.0",
  "updatedAt": "2018-04-18T03:36:03.070Z"
}